:020000040000FA
:100000000C946C030C9494030C9494030C9494033C
:100010000C9494030C9494030C9494030C94940304
:100020000C9494030C9494030C94E3060C945207E0
:100030000C9494030C9494030C9494030C949403E4
:100040000C9494030C9494030C9494030C949403D4
:100050000C9494030C9494030C9494030C948409CE
:100060000C9494030C9494030C9494030C949403B4
:100070000C9494030C9494030C9494030C949403A4
:100080000C9494030C9494030C9494030C94940394
:100090000C9494030C9494030C9494030C94940384
:1000A0000C9494030C9494030C94940300000000AB
:1000B000003E5B4F5B3E3E6B4F6B3E1C3E7C3E1CEE
:1000C000183C7E3C181C577D571C1C5E7F5E1C0034
:1000D000183C1800FFE7C3E7FF0018241800FFE7EB
:1000E000DBE7FF30483A060E2629792926407F05AE
:1000F0000507407F05253F5A3CE73C5A7F3E1C1CC4
:1001000008081C1C3E7F14227F22145F5F005F5F83
:1001100006097F017F006689956A6060606060946F
:10012000A2FFA29408047E040810207E2010080874
:100130002A1C08081C2A08081E101010100C1E0C7F
:100140001E0C30383E3830060E3E0E060000000011
:100150000000005F00000007000700147F147F14F8
:10016000242A7F2A1223130864623649562050003D
:1001700008070300001C2241000041221C002A1C29
:100180007F1C2A08083E0808008070300008080814
:100190000808000060600020100804023E51494534
:1001A0003E00427F400072494949462141494D3352
:1001B0001814127F1027454545393C4A49493141B9
:1001C000211109073649494936464949291E000087
:1001D00014000000403400000008142241141414DC
:1001E0001414004122140802015909063E415D59C8
:1001F0004E7C1211127C7F494949363E41414122D1
:100200007F4141413E7F494949417F090909013EFA
:10021000414151737F0808087F00417F4100204021
:10022000413F017F081422417F404040407F021C33
:10023000027F7F0408107F3E4141413E7F0909094A
:10024000063E4151215E7F09192946264949493216
:1002500003017F01033F4040403F1F2040201F3FDC
:100260004038403F63140814630304780403615961
:10027000494D43007F4141410204081020004141A3
:10028000417F04020102044040404040000307084F
:100290000020545478407F2844443838444444284B
:1002A000384444287F385454541800087E090218F2
:1002B000A4A49C787F0804047800447D400020407A
:1002C000403D007F1028440000417F40007C0478BE
:1002D00004787C080404783844444438FC18242406
:1002E0001818242418FC7C08040408485454542486
:1002F00004043F44243C4040207C1C2040201C3C03
:100300004030403C44281028444C9090907C4464F9
:10031000544C44000836410000007700000041368C
:10032000080002010204023C2623263C1EA1A16112
:10033000123A4040207A3854545559215555794144
:100340002154547841215554784020545579400C1B
:100350001E527212395555555939545454593955FC
:100360005454580000457C410002457D420001453F
:100370007C40F0292429F0F0282528F07C545545AC
:10038000002054547C547C0A097F4932494949323F
:100390003248484832324A4848303A4141217A3A54
:1003A00042402078009DA0A07D39444444393D401E
:1003B00040403D3C24FF2424487E4943662B2FFCCB
:1003C0002F2BFF0929F620C0887E09032054547979
:1003D000410000447D413048484A32384040227A4A
:1003E000007A0A0A727D0D19317D2629292F2826C7
:1003F0002929292630484D402038080808080808CF
:100400000808382F10C8ACBA2F102834FA00007B27
:10041000000008142A142222142A1408950022002D
:1004200095AA005500AAAA55AA55AA000000FF00E7
:10043000101010FF00141414FF001010FF00FF1024
:1004400010F010F0141414FC001414F700FF000056
:10045000FF00FF1414F404FC141417101F10101FD5
:10046000101F1414141F00101010F0000000001FC3
:10047000101010101F10101010F010000000FF10CE
:100480001010101010101010FF10000000FF1400CA
:1004900000FF00FF00001F10170000FC04F41414FC
:1004A0001710171414F404F40000FF00F7141414C8
:1004B00014141414F700F7141414171410101F1048
:1004C0001F141414F4141010F010F000001F101F6B
:1004D0000000001F14000000FC140000F010F010D9
:1004E00010FF10FF141414FF141010101F00000050
:1004F00000F010FFFFFFFFFFF0F0F0F0F0FFFFFF54
:100500000000000000FFFF0F0F0F0F0F38444438AA
:10051000447C2A2A3E147E02020606027E027E02E5
:1005200063554941633844443C04407E201E200604
:10053000027E020299A5E7A5991C2A492A1C4C7241
:1005400001724C304A4D4D303048784830BC625AC8
:10055000463D3E494949007E0101017E2A2A2A2A58
:100560002A44445F444440514A444040444A514034
:100570000000FF0103E080FF000008086B6B0836F5
:1005800012362436060F090F060000181800000066
:100590001010003040FF0101001F01011E00191D55
:1005A0001712003C3C3C3C0000000000F0F89C8E20
:1005B0008783878E9CF8F00000FEFF03030303038C
:1005C000070EFCF80000FEFF0303030303070EFC05
:1005D000F80000FFFF00000000000000FFFF000027
:1005E000FEFF8383838383C7EE7C380000F8FC0E14
:1005F00007030303070EFCF800003F7FE0C0808084
:10060000C0E07F3FFFFF01010101010101FFFF0089
:1006100000FFFF0C0C0C0C1C3E77E3C100007FFFB9
:10062000C0C0C0C0C0E0703F1F00001F3F70E0C0EE
:10063000C0C0E0703F1F00007FFFC1C1C1C1C1E366
:10064000773E1C00001F3F70E0C0C0C0E0703F1F3D
:10065000000000000001FFFF01000000D5F08D1434
:10066000A1C881CFD9F1AF2000080B00020202001F
:100670000009040000010202000005240010010529
:100680002401010104240206052406000107058156
:100690000310004009040100020A000000070502DF
:1006A0000240000007058302400000040309041211
:1006B000010002EF020140412336800001010203E4
:1006C0000141726475696E6F204C4C430041726445
:1006D00075626F790000010A11241FBECFEFDAE0C6
:1006E000DEBFCDBF11E0A0E0B1E0E8EDF0E202C076
:1006F00005900D92A633B107D9F727E0A6E3B1E044
:1007000001C01D92A13FB207E1F713E0CCE6D3E0B0
:1007100004C02197FE010E946410CB36D107C9F7AF
:100720000E941E0A0C946A100C94000090E0EDE9FF
:10073000F3E091119FEF8FEF9193919391939193A8
:100740008150D0F70895480F592F511D14161506E2
:1007500084F5803891056CF597FF02C090E080E049
:100760004138510514F040E850E0481BFB01E770A8
:10077000FF2721E001C0220FEA95EAF777FF02C0C8
:10078000695F7F4FFB0133E0F595E7953A95E1F717
:10079000F695FE2FEE27F795E795E80FF91FE3563C
:1007A000FC4F415030F08191DF011197822B8C93E7
:1007B000F8CF0895EDE9F3E0A0E0B8E000800EBCCA
:1007C0008111012C1197A0FDFDCF0192B9F70DB455
:1007D0000895FC0180919C03882311F13FB7F894A0
:1007E00082E08093E9002091F200822F90E01816B9
:1007F000190614F481E090E0882339F0289844E643
:1008000040939B034091F1004083222339F02091D3
:10081000F200211103C02BE62093E8003FBF0895AA
:100820008FEF9FEF08952FB7F89483E08093E9004E
:100830009091E800892F807295FF04C09091F2009A
:1008400080E4891B2FBF08958091930381110DC00F
:1008500082E080938F0384E0809390031092920350
:100860001092910381E0809393038FE893E00895C1
:10087000CF93DF931F92CDB7DEB76983DC01ED9193
:10088000FC910280F381E02D41E050E0BE016F5FFA
:100890007F4F09950F90DF91CF91089583E080936A
:1008A000E9008091F200882319F08AE38093E80040
:1008B00008950E94130490E00895CF93DF931F9250
:1008C000CDB7DEB7FC018485958597FD08C02FEF75
:1008D0003FEF358724870F90DF91CF910895CE01A8
:1008E00001960E94E903019719F4898190E0F3CF02
:1008F0008FEF9FEFF0CF0F931F93CF93DF931F9254
:10090000CDB7DEB78C01FC018485958597FF0BC0C0
:10091000CE0101960E94E903019771F4898190E06C
:10092000F80195878487F801848595850F90DF917C
:10093000CF911F910F9108958FEF9FEFF1CFFC01A1
:100940008485958597FD0BC09FB7F89482E08093CE
:10095000E9008091F2009FBF90E0019608959FB753
:10096000F89482E08093E9008091F2009FBF90E0CC
:1009700008954091890350918A0320918703309113
:10098000880342175307B4F49091E8009570E1F39F
:100990009091E80092FD19C08093F1008091890345
:1009A00090918A0301968F739927892B19F48EEF02
:1009B0008093E8008091890390918A030196909337
:1009C0008A038093890381E0089580E00895DF928F
:1009D000EF92FF920F931F93CF93DF93D82E8A014C
:1009E000EB017B01E40EF51ECE15DF0559F0D7FEB5
:1009F00012C0FE0184910E94B90421968111F4CFA6
:100A00000FEF1FEFC801DF91CF911F910F91FF9062
:100A1000EF90DF9008958881EECF0F931F93CF93CF
:100A2000DF931F92CDB7DEB782E0898342E450E0C6
:100A300069E676E080E80E94E7040E942404DC0175
:100A400012960D911C910115110589F0D801ED91B7
:100A5000FC910280F381E02DBE016F5F7F4FC801E2
:100A6000099597FD04C0F80100851185ECCF8981B7
:100A70000F90DF91CF911F910F910895615030F049
:100A80002091F100FC0120830196F8CF289884E69C
:100A900080939B030895FC010E94E205319728F0A2
:100AA00068517C4F8F4F9F4FF9CFAB01FC010E94E3
:100AB000E205641775078E079F07C8F308958F92A4
:100AC0009F92AF92BF92CF92DF92EF92FF920F93DD
:100AD0001F93CF93DF936C017B018A0180910B01FF
:100AE000882309F45AC080919C03882309F455C0D7
:100AF00080918E0380FF05C08091E000826080932A
:100B0000E000E801B12C8AEFA82E93E0892E2AE3B9
:100B1000922E209711F4BB20C9F10E941304811179
:100B200008C0AA94AA20C9F181E090E00E944B0578
:100B3000F0CF8C171D0611F00CF08C2F9FB7F89496
:100B40008092E9002091E80025FD02C09FBFE1CF1F
:100B5000282F30E0C21BD30BF701815020F04191C8
:100B60004093F100FACFE20EF31EBB2021F09092E9
:100B7000E800B12CEBCF8091E80085FDE7CF9092A3
:100B8000E800BB24B394209709F3F3CF5D9884E683
:100B900080938D03101611063CF081E090E0F60181
:100BA0009383828310E000E0C801DF91CF911F9111
:100BB0000F91FF90EF90DF90CF90BF90AF909F90FC
:100BC0008F900895A3E8B3E02FB7F8947D918D91AD
:100BD0009C9166B52FBFA89B05C06F3F18F47F5F3F
:100BE0008F4F9F4F22E0660F771F881F991F2A950E
:100BF000D1F70895AF92BF92CF92DF92EF92FF921A
:100C00000F931F93CF93DF936C017B018B01040F34
:100C1000151FEB015E01AE18BF08C017D10759F0D0
:100C20006991D601ED91FC910190F081E02DC60112
:100C30000995892B79F7C501DF91CF911F910F910C
:100C4000FF90EF90DF90CF90BF90AF90089590E02D
:100C50000C944B058FB18095807F669B88601C9BB0
:100C60008460089590E1282F81E061FD84E060FDBB
:100C7000880F62FD8295687F969FD0011124A20F94
:100C8000A356BC4F0C90082A40FF08260C920895EA
:100C9000EF92FF920F931F93CF93DF937C018B0111
:100CA000040F111DEB0177FF02C0D0E0C0E0C801C6
:100CB0000134110514F080E490E0C817D9075CF402
:100CC00080E8E816F10428F441E0BE01C7010E9463
:100CD00032062196ECCFDF91CF911F910F91FF90BB
:100CE000EF9008958F929F92AF92BF92CF92DF9232
:100CF000EF92FF920F931F93CF93DF936D3089F0A4
:100D0000C0904301D09044016A30D1F41092420166
:100D10001092410188E0C80ED11CD0924401C092CB
:100D2000430181E090E0DF91CF911F910F91FF90FF
:100D3000EF90DF90CF90BF90AF909F908F900895ED
:100D40000091410110914201E5E06E9FE001112404
:100D5000C455DF4F5801F12CF5E0E12CFF1629F0C6
:100D6000CE010196FE01E490EC01912C812CF0E87B
:100D7000AF16B10458F4B601680D791D60347105E1
:100D800028F44E2D4170C5010E943206E6948FEF83
:100D9000881A980AE8E08E16910449F7F394FFEF59
:100DA000AF1ABF0A86E0F812D7CF0A5F1F4F109321
:100DB000420100934101B5CF80E00C94DA0308951D
:100DC00090E080E008951F920F920FB60F921124C9
:100DD0008F939F938091E1009091E100937F909396
:100DE000E10083FF0FC01092E90091E09093EB00C7
:100DF0001092EC0092E39093ED0010929C0398E027
:100E00009093F00082FF22C093E09093E9009091CC
:100E1000F200992319F09AE39093E80090918D03E2
:100E2000992341F090918D03915090938D039111EE
:100E300001C05D9A90919B03992341F090919B038F
:100E4000915090939B03911101C0289A84FF18C080
:100E50008091E2008E7E81608093E2008091E100CB
:100E60008F7E8093E10080918E038E7E80618093DF
:100E70008E039F918F910F900FBE0F901F9018952A
:100E800080FFF7CF8091E2008E7E80618093E20048
:100E90008091E1008E7E8093E10080918E038E7EB2
:100EA0008160E5CF1F920F920FB60F921124CF925F
:100EB000DF92EF92FF920F931F932F933F934F93E5
:100EC0005F936F937F938F939F93AF93BF93EF93B2
:100ED000FF93CF93DF93CDB7DEB76C97DEBFCDBF67
:100EE0001092E9008091E80083FF25C068E0CE0100
:100EF00045960E943E0582EF8093E8008D8987FF2A
:100F000039C09091E80090FFFCCF982F907609F0BF
:100F100034C19E894F89588D2F89F88C911131C029
:100F2000803861F580918C038093F1001092F1007C
:100F30008EEF8093E8006C960FB6F894DEBF0FBE7C
:100F4000CDBFDF91CF91FF91EF91BF91AF919F9175
:100F50008F917F916F915F914F913F912F911F9151
:100F60000F91FF90EF90DF90CF900F900FBE0F90FA
:100F70001F9018959EEF9093E800C7CF1092F10054
:100F8000D5CF913059F48111D3CF4130510581F63D
:100F900080918C038D7F80938C03CACF933049F46A
:100FA0008111C6CF4130510519F680918C038260C2
:100FB000F2CF953041F48091E80080FFFCCF2068AB
:100FC0002093E300B5CF963009F0A9C00B8D1C8D9E
:100FD00022E01092E90010928A0310928903F21223
:100FE0002EC010928803109287030E940D051F8265
:100FF00099E09983FA8291E09E8390EA98879AEF2C
:1010000099872091890330918A03275F3F4F3C8362
:101010002B838D831092E90010928A03109289032A
:10102000109388030093870349E050E0BE016F5F8F
:101030007F4F80E00E94E7040E940D0579CF109356
:101040008803009387030E942404DC0112960D910B
:101050001C910115110509F451C1D801ED91FC91C4
:101060000480F581E02DBE016B5E7F4FC8010995BC
:10107000009709F03EC1F80100851185EACFF3E041
:10108000FF120EC08F89882309F440C0823061F4BA
:1010900040E867E08DEC96E00E94CE09811148CFD0
:1010A00081E28093EB0047CF813029F440E86BE088
:1010B00081EC96E0F1CF833099F70E942404DC01A3
:1010C0001296ED90FC908E010F5F1F4F6801E114A6
:1010D000F10479F0D701ED91FC910680F781E02DC4
:1010E000B801C7010995080F111DF701E084F184CB
:1010F000EECFD8011C92F60101900020E9F731975C
:10110000BF016C197D0940E0C601C6CF6BEA76E0ED
:10111000FB01449150E080E80E94E70409CF97303A
:1011200009F4BECF983021F481E08093F10000CF24
:10113000993009F0FDCE837009F0B2CFE1E1F1E022
:1011400081E031E096E32191222371F08093E90060
:101150003093EB00DF0111972C912093EC009093DA
:10116000ED008F5F873079F78EE78093EA00109269
:10117000EA008F8980939C03DBCE8B8D9C8D10922F
:10118000E90010928A031092890390938803809358
:101190008703898D811192C08E899D89913A49F486
:1011A000813209F07DCF47E050E064E071E080E0FB
:1011B000B3CF913209F074CF833269F48F89988D5F
:1011C000B0E0A0E08093000190930101A0930201A0
:1011D000B0930301ADCE803269F48091E80082FFC4
:1011E000FCCF67E084E091E00E943E058BEF8093A6
:1011F000E8009ECE823209F09BCE8F8980930B014E
:10120000EEEFFFE7859194918B3F9C4D51F1E0E02B
:10121000F8E08091040190910501A0910601B09140
:101220000701803B9440A105B105F1F480910B01C9
:1012300080FD1AC0EE3F8AE0F80789F587E797E757
:10124000918380838091600080938B0388E19BE091
:101250000FB6F894A895809360000FBE909360003D
:1012600067CEEEEFFAE0D5CF80819181873797473F
:1012700009F05ECEA895809160008861809360003F
:1012800080918B0380936000EE3F2AE0F20789F0A3
:101290008091FE0A9091FF0A9183808349CE8081DC
:1012A00091818737980751F29093FF0A8093FE0A45
:1012B000C5CF1092FF0A1092FE0A3ACE0E94240473
:1012C000DC0112960D911C910115110509F4E8CE6F
:1012D000D801ED91FC910190F081E02DBE016B5E93
:1012E0007F4FC8010995811123CEF8010085118532
:1012F000EBCF181619060CF41BCED2CEF1E0FF127C
:10130000BECE6FEA76E004CF0F920FB68F939F9315
:10131000EF93FF9380917E038D5F8D3708F08D579B
:1013200080937E03EFE7F3E080818E4F808391818D
:101330009F4F918382818F4F828383818F4F8383DD
:10134000E3E8F3E080818F5F808381818F4F818329
:1013500082818F4F828383818F4F83838FB18F6090
:1013600066991C9B88278F3681F480917D03981B9A
:10137000963068F0E0E0F8E087E78083818388E1D9
:1013800080936000F0936000FFCF90937D03FF9106
:10139000EF919F918F910FBE0F901895EF92FF9252
:1013A0000F931F93CF93DF93F82E192FE62E042F60
:1013B00081E0860F880F0E94B90483E00E94B9047F
:1013C000CF2DD12FEC0EFD2EF11CCE15DF05B9F07F
:1013D00007FF13C0FE0184910E94B904182F80E01A
:1013E0000E94B904812321968111EFCFDF91CF9123
:1013F0001F910F91FF90EF9008958881EDCF81E0CC
:10140000F5CFEDE9F7E01382128288EE93E0A0E0D9
:10141000B0E084839583A683B7838BE191E09183C9
:1014200080838FEF9FEF95878487EDEEF7E013823F
:1014300012828DE291E0918380830895789483E015
:1014400084BD83E085BD81E080936E00E1E8F0E03B
:1014500083E08083E0E881E08083E1E983E08083CA
:10146000E0E981E08083E1EC87E08083E3EC81E0E8
:101470008083E0EC82E08083E2EC81E08083EAE735
:1014800087E080838068808310929C0310928C0395
:1014900010928E038091D70081608093D70080EAFC
:1014A0008093D80089B5806189BD89B5826089BD86
:1014B00009B400FEFDCF81E090E00E944B058091D1
:1014C000D8008F7C80618093D8008091E000807F7D
:1014D0008093E0008091E1008E7E8093E1008DE0BA
:1014E0008093E200559A209A81EC80937C0081EFF2
:1014F00085B987EE84B982E38BB982EF8AB9769A8F
:101500006E9880EF81BB10BA80E58CBD81E08DBD07
:1015100085E00E9427065F9A85E00E9427065C9876
:10152000ECE5F6E085918EBD00000DB407FEFDCF21
:10153000E936C1F75C9A81E88093640081E080938A
:1015400065000E94DC060E942A0687FF15C05C9891
:1015500085EA8EBD00000DB407FEFDCF5C9A2E9883
:101560002F982D988091640080628093640081E0C0
:1015700083BF889513BEFCCF0E942A0682FF37C026
:101580002D980E942A0684788438A1F42D9A88EC3C
:101590000E9427062F986FEF82E090E00E94DF0DF7
:1015A00084EF91E00E944B052F9A0E942A068478CE
:1015B0008438D9F30E942A0684718431A1F42D9ACB
:1015C00088EC0E9427062E9860E082E090E00E945E
:1015D000DF0D84EF91E00E944B052E9A0E942A06AF
:1015E00084718431D9F388EC0E942706C5CF2D9AE7
:1015F00082E090E00E94D70D882309F4D2C03E9A81
:101600003F9A81E090E00E94D70D182F147081FF5F
:101610000AC011112E98C1EFDFEF0E942A0686FF43
:10162000C3C02E9A2F9A82E30E9427060E942A06A0
:101630008111F9CF809164008E7F80936400809146
:101640007A00806480937A0080917A0086FDFCCFD6
:10165000C0917800D09179000E94E205AB01BC01F5
:10166000CE01B0E0A0E0DC01992788278C019D0124
:10167000040F151F261F371FC901B80120916400F0
:10168000216020936400611571058105910511F0B9
:101690000E94CE0DC6E4D1E09BE0C92ED12CE12CF6
:1016A000F12C23E0422E512C612C712C812C912C99
:1016B00030E8A32E32E4B32E0E947F0DA7019601DD
:1016C0000E94F10D605B7F4F8F4F9F4F7A8F698F24
:1016D0000E947F0DA30192010E94F10D6E5F7F4F6A
:1016E0008F4F9F4F688F88829982AA82BB8280E049
:1016F00090E0A0E0B2E48C839D83AE83BF830E9420
:101700007F0DA70196010E94F10D655071098109B5
:1017100091090E946B0F20E030E048EC52E40E94F7
:10172000C10E688B798B8A8B9B8B0E947F0D25E085
:1017300030E040E050E00E94F10D665F7F4F8F4F38
:101740009F4F0E946B0F20E030E048EC52E40E9473
:10175000C10E6C8B7D8B8E8B9F8B6B9693E0C2360C
:10176000D90709F0A9CF0E94960310924401109264
:10177000430110924201109241018DE3882E81E0D5
:10178000982E2224239480913F01882309F4A7C036
:1017900010923F0120E030E0232BA9F30E940000CB
:1017A000F2CF3E983F982DCF112329F0C430D105B8
:1017B00011F42E9A2F9881E00E94DA030C2F077003
:1017C000B02EAE01F3E055954795FA95E1F7CA01C1
:1017D0009695982F882797958795835E9B4F70E005
:1017E00060E04E3F2FEF520771F1DC01A058B109C4
:1017F00030E020E0FB01E455FA4F7F01F701E20FF2
:10180000F31FE491F0E04F010B2C02C0880C991CEF
:101810000A94E2F74F3F540739F054960C915497CD
:10182000082954960C935497BB2039F06C01C20ED2
:10183000D31EF60104890929048B2F5F3F4F1196AF
:1018400028353105D9F64F5F5F4F80589F4F685A52
:101850007F4F603B710529F60E94DC068FE00E94F5
:1018600027062196C931D10509F0D7CE112311F0F1
:101870002F9A2D9880E991E00E944B052D9A81E0E6
:1018800090E00E94D70D80FFCECE8AE090E00E94CB
:10189000D70D9FEF980F9E3F08F0C5CE22E330E0B2
:1018A000309342012093410128E330E0309344011A
:1018B00020934301CBE0D0E0682F8DEE97E00E94AB
:1018C0007206CE010E94D70D2196C131D105A1F734
:1018D0000E94DC0688EE93E00E944B05A4CE809126
:1018E0007F0390914001A82FA91BA03140F4AF3095
:1018F00009F450CFB1E0B3BF889513BE4BCF20920F
:101900003F0180934001F4018081918101968083A1
:1019100091830E942A06809345010E9496031092AB
:101920004401109243011092420110924101C6E419
:10193000D1E0688D70E090E080E00E946B0F21E3C1
:1019400038E04CE25DE30E94F70F2C853D854E8523
:101950005F850E94550E6B017C01288939894A896F
:101960005B89688579858A859B850E94550E2B0148
:101970003C01488659866A867B862C893D894E893A
:101980005F89C701B6010E94540E6B017C01CC86B1
:10199000DD86EE86FF86A3019201688179818A81C6
:1019A0009B810E94550E688379838A839B83A7015C
:1019B00096016C817D818E819F810E94550E6C8382
:1019C0007D838E839F83898D9A8D181619061CF44A
:1019D00001979A8F898F6B96E3E0C236DE0709F094
:1019E000A8CFC6E4D1E0898D9A8D181619069CF50A
:1019F000388C6C817D818E819F810E94330F6B01B9
:101A0000688179818A819B810E94330F2B01F0E4E8
:101A1000CF16D10428F4432DB601C2010E94A303BE
:101A2000032D10E0B8016C0D7D1D6150710960340B
:101A3000710520F4432DC2010E94A303432DB6017A
:101A4000C2010E944806C801840D951D432DB601B0
:101A500001970E9448066B9603E0C236D00719F63C
:101A60000E94DC0697CE8F929F92AF92BF92CF9248
:101A7000DF92EF92FF92CF93DF93EC01688179813F
:101A80008A819B81611571058105910521F464E2CC
:101A900079ED8BE597E02DE133EF41E050E00E94D6
:101AA000F10D49015A019B01AC01A7EAB1E40E9482
:101AB000100E6B017C01ACEEB4EFA50194010E9405
:101AC0001E0EC60ED71EE81EF91EF7FE06C081E0E8
:101AD000C81AD108E10880E8F80AC882D982EA82E7
:101AE000FB82C701B6019F77DF91CF91FF90EF9006
:101AF000DF90CF90BF90AF909F908F9008958F927E
:101B00009F92AF92BF92CF92DF92EF92FF9260913D
:101B10000C0170910D0180910E0190910F016115E2
:101B200071058105910521F464E279ED8BE597E07B
:101B30002DE133EF41E050E00E94F10D49015A01DF
:101B40009B01AC01A7EAB1E40E94100E6B017C017D
:101B5000ACEEB4EFA50194010E941E0EC60ED71E76
:101B6000E81EF91EF7FE06C081E0C81AD108E10898
:101B700080E8F80AC0920C01D0920D01E0920E01AB
:101B8000F0920F01C701B6019F77FF90EF90DF90B1
:101B9000CF90BF90AF909F908F90089560930C016D
:101BA00070930D0180930E0190930F010895F999A0
:101BB000FECF92BD81BDF89A992780B50895262F52
:101BC000F999FECF92BD81BDF89A019700B4021633
:101BD00039F01FBA20BD0FB6F894FA9AF99A0FBEE1
:101BE0000895052E97FB1EF400940E94080E57FDE1
:101BF00007D00E94230E07FC03D04EF40C94080E6D
:101C000050954095309521953F4F4F4F5F4F089528
:101C100090958095709561957F4F8F4F9F4F089558
:101C20000E94450EA59F900DB49F900DA49F800D1E
:101C3000911D11240895B7FF0C94100E0E94100EF0
:101C4000821B930B0895A1E21A2EAA1BBB1BFD0158
:101C50000DC0AA1FBB1FEE1FFF1FA217B307E4078B
:101C6000F50720F0A21BB30BE40BF50B661F771FE3
:101C7000881F991F1A9469F76095709580959095C3
:101C80009B01AC01BD01CF010895A29FB001B39F9C
:101C9000C001A39F700D811D1124911DB29F700D75
:101CA000811D1124911D08955058BB27AA270E9419
:101CB0006C0E0C94BD0F0E94AF0F38F00E94B60F4F
:101CC00020F039F49F3F19F426F40C94AC0F0EF475
:101CD000E095E7FB0C94A60FE92F0E94CE0F58F376
:101CE000BA17620773078407950720F079F4A6F501
:101CF0000C94F00F0EF4E0950B2EBA2FA02D0B01D3
:101D0000B90190010C01CA01A0011124FF27591B40
:101D100099F0593F50F4503E68F11A16F040A22F46
:101D2000232F342F4427585FF3CF469537952795B7
:101D3000A795F0405395C9F77EF41F16BA0B620BB6
:101D4000730B840BBAF09150A1F0FF0FBB1F661FFD
:101D5000771F881FC2F70EC0BA0F621F731F841F40
:101D600048F4879577956795B795F7959E3F08F066
:101D7000B0CF9395880F08F09927EE0F9795879528
:101D800008950E94D50E0C94BD0F0E94B60F58F016
:101D90000E94AF0F40F029F45F3F29F00C94A60F8A
:101DA00051110C94F10F0C94AC0F0E94CE0F68F3FC
:101DB0009923B1F3552391F3951B550BBB27AA2704
:101DC00062177307840738F09F5F5F4F220F331F3E
:101DD000441FAA1FA9F335D00E2E3AF0E0E832D006
:101DE00091505040E695001CCAF72BD0FE2F29D009
:101DF000660F771F881FBB1F261737074807AB07DB
:101E0000B0E809F0BB0B802DBF01FF2793585F4F4F
:101E10003AF09E3F510578F00C94A60F0C94F10F08
:101E20005F3FE4F3983ED4F3869577956795B79531
:101E3000F7959F5FC9F7880F911D9695879597F93C
:101E40000895E1E0660F771F881FBB1F62177307B5
:101E50008407BA0720F0621B730B840BBA0BEE1FCA
:101E600088F7E09508950E943A0F6894B1110C9498
:101E7000F10F08950E94D60F88F09F5798F0B92F60
:101E80009927B751B0F0E1F0660F771F881F991FAF
:101E90001AF0BA95C9F714C0B13091F00E94F00F52
:101EA000B1E008950C94F00F672F782F8827B85F62
:101EB00039F0B93FCCF3869577956795B395D9F707
:101EC0003EF490958095709561957F4F8F4F9F4F11
:101ED0000895E89409C097FB3EF49095809570951D
:101EE00061957F4F8F4F9F4F9923A9F0F92F96E966
:101EF000BB279395F695879577956795B795F111DB
:101F0000F8CFFAF4BB0F11F460FF1BC06F5F7F4F77
:101F10008F4F9F4F16C0882311F096E911C0772389
:101F200021F09EE8872F762F05C0662371F096E892
:101F3000862F70E060E02AF09A95660F771F881F61
:101F4000DAF7880F9695879597F9089597F99F671F
:101F500080E870E060E008959FEF80EC0895002431
:101F60000A941616170618060906089500240A94FE
:101F700012161306140605060895092E0394000C84
:101F800011F4882352F0BB0F40F4BF2B11F460FF13
:101F900004C06F5F7F4F8F4F9F4F089557FD90583C
:101FA000440F551F59F05F3F71F04795880F97FB1D
:101FB000991F61F09F3F79F08795089512161306D7
:101FC0001406551FF2CF4695F1DF08C01616170606
:101FD0001806991FF1CF869571056105089408953B
:101FE000E894BB2766277727CB0197F908950E94CD
:101FF0000A100C94BD0F0E94AF0F38F00E94B60F6C
:1020000020F0952311F00C94A60F0C94AC0F112422
:102010000C94F10F0E94CE0F70F3959FC1F3950FB2
:1020200050E0551F629FF001729FBB27F00DB11D5C
:10203000639FAA27F00DB11DAA1F649F6627B00DEC
:10204000A11D661F829F2227B00DA11D621F739FD5
:10205000B00DA11D621F839FA00D611D221F749FE3
:102060003327A00D611D231F849F600D211D822F2A
:10207000762F6A2F11249F5750409AF0F1F0882351
:102080004AF0EE0FFF1FBB1F661F771F881F91507E
:102090005040A9F79E3F510580F00C94A60F0C9478
:1020A000F10F5F3FE4F3983ED4F3869577956795FB
:1020B000B795F795E7959F5FC1F7FE2B880F911DA8
:1020C0009695879597F90895EE0FFF1F0590F49167
:1020D000E02D0994F894FFCFFFFFFFFF00E100001F
:1020E000000000000100000000C18081000000002D
:1020F00000000038045F0559044E049F045D047B12
:0E21000004000000007206FA05E006DF06008B
:1074000080E189BD82E189BD09B400FEFDCF089508
:10741000CAD569F08091E9008F931092E9009FD45A
:1074200083FF01C01ED58F9187708093E900089576
:107430008EEF0090E10008220092E1000895F20131
:10744000F999FECFF2BDE1BD0895F9DFF89A80B554
:1074500008C0F5DF1FBA80BD0FB6F894FA9AF99A02
:107460000FBE31962F010895E0E0F0E085919491F0
:107470000196089580EE8BB98BEA34D01092890082
:107480008AEF8093880082E080936F0083E080938E
:107490008100E7E5F7E785913AD0E336E1F781E04F
:1074A0008093D7008AE482BF1092D8001092E20045
:1074B0001092DA001092E10080E808D019BC1EBAE0
:1074C0001092E00062D489E053D481E98093D8001F
:1074D0000895A3E6B1E090E81AD08D939A95E1F76C
:1074E000089586E008D010C083E005D08F2F0FD01C
:1074F0008E2F0DD080E05E9A599809C005D085E0A6
:10750000FADF05D080FDFDCF599A5E9808958EBDB3
:107510008DB587FFFDCF8EB508958FE08221E9F705
:10752000F3DFE3E6F6E090EB5C98892FF0DF80E193
:10753000EEDF5C9A8191EBDF83E68E278F77D1F7C0
:107540009395983B89F70895E3E6F1E097FC36C000
:1075500094FC4DC092FE089596849920D1F3F8943E
:10756000C089D78520E030E080E090E4AFEFBFEF46
:10757000119689199040E0F72D01BD4F8D0127FD2F
:1075800013C0E0E0F8E011928EE7819392E4E117F6
:1075900091939AE508F092E4E334C9F7819310825D
:1075A000BFDFFE012196A0DF94DFF901FFD4205850
:1075B0003F4F040D151D9A9411F712C28301282D17
:1075C00060906C0170906B0143D019F48823C1F76F
:1075D0000895380188243CD0C9F580916A0182174A
:1075E00009F4830160906E0170906D01F4CF80E129
:1075F000982E60906E0170906D012AD059F4882306
:10760000B1F708959FEF95FC03C096FE089591E0B1
:1076100097FB890E662477248301222719D0B1F4C1
:107620008823A1F380916A0136F0881650F48217FE
:1076300030F0213003C0881520F4281710F483019E
:10764000282F60906E0170906D01E8CF3801822E76
:10765000F3014ADF3EDFC3E6D1E0E0E5F7E709905A
:107660008591081621F4E735D1F7088080104CCFBA
:10767000C9E031DFCA95E9F7D0E197FC55C094FC29
:1076800037C096FE1AC0C3E6D2E0E3E6F6E098E023
:1076900088E78E0F00840192E817E1F7884F099080
:1076A0000192E817E1F7C858DF4F9A9589F735DF5F
:1076B000C85FD340C33E49F749C0C3E6D6E0EBE517
:1076C000FAE098E08E2F885702900086E817E1F7DD
:1076D00038960A900292E817E1F73897C857D040D9
:1076E0009A9581F71ADFC850DC4FC33E41F72EC090
:1076F000A3EEB6E0E3E6F6E09AE0C6E00D90808106
:107700008025807F802582958193A336B90709F46F
:10771000B2E0E336F90709F4F2E0E336FC0771F76B
:10772000FCDEDA9529F712C0A3EEB9E0E3E6FAE051
:1077300092E00E90829180258F70802582958083C3
:10774000E336F907B1F7E9DEDA9571F7882708958E
:1077500041524455424F59D5F08D14A1C881CFD91B
:10776000F1AF000000FFFFCFCFFFFFFFFFCFCFFF44
:10777000FF0000FE067E7E06FE46565616FE0656A4
:10778000461EFE3F61E9E3FFE3EBE3FFE3EBE3FFCC
:10779000E16B3F0012011001020000084123360096
:1077A00001000000000109023E00020100803209D0
:1077B000040000010202010005240010010424025B
:1077C000040524060001070582030800FF090401DF
:1077D00000020A00000007050402100001070583EB
:0477E0000210000192
:1078000011241FBE04B714BE88E18093600010925B
:1078100060008EEF9AE09EBF8DBF222433242101A9
:107820003101410180E88AC00F928F939F931F928C
:107830000FB60F9211244F936F938091DA0080FF5F
:1078400037C023C00F920FB68F939F93EF93FF9390
:1078500088278093850080938400E0E5F1E09281A1
:10786000907261F490818917980B908309F45D9A66
:1078700091818917980B918309F4289A239411F424
:107880008315381EFF91EF9154C08091D80080FF7E
:107890000FC08091DA008E7F8093DA008091D9004A
:1078A00080FF04C0ADDD81E08EBB02C019BC1EBAF2
:1078B0008091E10080FF0BC055D280FF08C055D2F7
:1078C0008091D800806202DE19BC85E08EBB809179
:1078D000E10084FF1AC046D284FF17C091DD809179
:1078E000D8008F7DF3DD8FEEA4DD3CD28F7E8160EA
:1078F0003FD280915301882331F48091E30087FDCA
:1079000002C081E001C084E08EBB8091E10083FF72
:107910000CC028D283FF09C087EF8BDD82E08EBBCD
:107920001092530185DD21D230D26F914F910F908B
:107930001F909F918F910FBE0F90189580936100BB
:1079400010926100B1E0B5BF82E085BF81EF85B9DB
:1079500087EE84B91DB8769A10BA83EF81BB82E6B0
:107960008BB982EF8AB980E58CBDBDBDA0E0E4E9AA
:10797000F7E705900D92A035E1F71D92BB30E9F7CE
:1079800001FD06C0000004C07C9B02C06DDD41F516
:1079900071DD78945DDE71F0ABE9B7E0E3E6F7E71F
:1079A00090E105900D929A95E1F7A059BF4FE33908
:1079B000B9F7B7DD52D02CDD80915201807861F4A7
:1079C0008FB18095807F66991C9B8460982E1ADE0B
:1079D0008110BADD92FC02C0332062F745DD51F31D
:1079E000F89489EB7FDD81E08093E00010926F00D6
:1079F00010928100109285001092840081E085BF72
:107A000015BE2E9A2F9A2D9A5D9A289A0C940000F2
:107A1000A4D107C057D102C0C6D239F0A0D182FF8D
:107A2000FBCF85FFF7CF8091F1000895082E83E00A
:107A300095D185FD07C08AD102C0B5D269F08FD13A
:107A400080FFFBCF0092F10080915201807221F4FF
:107A50005D9884E68093500108957FD182FF34C100
:107A600080915201807221F4289884E6809351011C
:107A7000CFDF182F853431F422248EE7382EDFDC57
:107A80008DE00BC1843511F4C3DFFACF8C34C1F320
:107A90008035B1F3843721F484E4C8DF80E0FDC091
:107AA000813611F489E5F9C0813429F4B1DF582E0B
:107AB000AFDF482EE5CF803711F483E5EEC0833584
:107AC00039F4E0E5F7E78591B1DFE735E1F7E6C0A6
:107AD000863521F481E3AADF89E3DFC0863761F4CC
:107AE00081E3669B8E5F1C9B8F5FA0DF8FB18095CB
:107AF00082958F708F5BD1C08837A9F489DF80931E
:107B00005201289A84FD28985D9A83FD5D982E9AEB
:107B100081FD2E982F9A82FD2F982D9A80FD2D9809
:107B200087FD8824ADCF8A3649F48FE9E4DCC3E0D1
:107B3000EEDC7CDFCA95E1F7E7DCB0C0833731F4D7
:107B400087E874DF85E972DF8EE1A7C0853639F4F6
:107B5000E0E8F3E73ED2E058F040E0F791CF82361C
:107B600031F489E563DF80E061DF80E896C082342C
:107B700019F0873609F07DC033244ADFD82F48DF5B
:107B8000C82F46DF082F8354843008F085C00634A0
:107B900011F4440C551CF20110926F001736B9F421
:107BA000033489F483E0A1DCB2DC8EB51EBC3EDF79
:107BB0000DB42197D1F7A8DC08C0063411F48591E3
:107BC00001C043DC33DF2197C2F72F014AC00334E1
:107BD000A9F4E11104C085DC88ED87DC8FDC81DC51
:107BE00082E083DC15DF0DB48EBDCA95D9F73196DE
:107BF0008FDC84DCDA9569F72F0131C00634F1F4AB
:107C00009F01F437D8F4E5D119C002DF063461F4DE
:107C1000C0FB46F0F43728F4182E81E087BFE895C2
:107C200011243296082E0AC0043439F4DF01B370EF
:107C3000AD59B94F8D93319601C00BDC21972AF7CE
:107C4000043431F42F01F370FE2B49F46ADC07C0D1
:107C5000063429F42F01F901F43708F4B8D18DE086
:107C6000E5DE063411F45694479482E080936F0069
:107C700015C08237E1E049F08634E0E031F08E341F
:107C8000E3E019F0813531F4E2E0F0E089E087BF0C
:107C9000849103C08B3111F08FE3C8DE83E0C5DB34
:107CA00055D095FF03C009C07ED171F058D080FF38
:107CB000FBCF4CD002C077D139F051D080FFFBCF41
:107CC00084E0B3DB8BE743C00895E4E5F1E067E0CF
:107CD00090915B0180915C01913231F0913AE1F534
:107CE0008132D1F55ED181C0823271F48191805BA5
:107CF0008191844089F580915D0180FD2DC0F894CB
:107D000081E08093E0007CCD803231F54AD14BD1C7
:107D1000E9F08530D9F023D083FD18C082FFF7CF7A
:107D200004C081DE8193615031F09091F300809125
:107D3000F200892BB1F7C6DF611549F704C033D1D2
:107D400029F0853019F00BD080FFF9CF8EE79091A4
:107D5000E80089238093E800089584E066DB809141
:107D6000E80008958091E2000895FCDF8E7F806135
:107D70008093E200089582E061EC09D083E061E83D
:107D800002D084E060E842E103C080E060E042E0CD
:107D90004CDB81E007D01092ED006093EC00409343
:107DA000ED0008959091EB00892B8093EB000895EE
:107DB00060E0923029F0913029F4E0E062E102C005
:107DC000E2E16EE3F1E0089580915B0188234CF4D9
:107DD00002C0E9D0C1F3C3DF82FFFBCF73CFE3D092
:107DE00091F3BDDF80FFFBCFB1CF40916101509196
:107DF00062014617510520F0462F611509F4A6DFF0
:107E000050E022C0D0D061F1853051F1A8DF83FD70
:107E100059CFA5DF82FD21C080FF16C03091F3004D
:107E20002091F20006C081918093F10041502F5FB4
:107E30003F4F411519F028303105A8F350E02830A4
:107E4000310509F451E082DF4115E1F65523D1F601
:107E500004C0A9D029F0853019F081DF82FFF9CF65
:107E600031CFEBE5F1E0DFDD8193E336E1F72DDFA4
:107E700076DF83FF91C080915B0190915C0191302E
:107E800009F170F09330F1F0953009F444C0963068
:107E900009F456C0983009F460C0993059F767C0AA
:107EA000823841F780915F01BFDA2091EB00109298
:107EB000E90077D02295269521702093F100109249
:107EC000F10052C0882311F08230A1F68F71823008
:107ED00089F680915D018823D1F420915F0127709C
:107EE00049F22093E9008091EB0080FF10C09330AD
:107EF00011F480E20BC080E155DF81E0880F2A9504
:107F0000E9F78093EA001092EA0088E04BDF1092D4
:107F1000E90047D02AC0882391F410915D011068D0
:107F20000FB7F8943ED050DF1ADF80FFFDCF1093DB
:107F3000E300103883E009F482E08EBB0FBF2CC051
:107F40008058823048F580915D0190915E0130DF6C
:107F5000603011F126D049DF1FC08038E9F421D00C
:107F6000809153018093F100F1DE2EDF15C088234C
:107F700099F490915D01923078F49093530111D06F
:107F800023DF80915301882321F48091E30091E065
:107F900087FD94E09EBBEFDEE2DE83FF089580E282
:107FA00001DF87EFD4CE8EB388230895A3E6B1E036
:107FB000F437B8F40ED090E40D901D9081E087BFA7
:107FC000E89532969A95C1F71124E058F04085E083
:107FD00001C083E001D081E187BFE89507B600FCCE
:047FE000FDCF089534
:067FFA003139D9CFFBDC98
:00000001FF
